:020000040800F2
:10000000600700204902000851020008530200085E
:1000100055020008570200085902000800000000BD
:100020000000000000000000000000005B0200086B
:100030005D020008000000005F020008651F000864
:1000400063020008630200086302000863020008FC
:1000500063020008630200086302000863020008EC
:1000600063020008630200086302000863020008DC
:1000700063020008630200086302000863020008CC
:100080006302000863020008E10E00086302000832
:1000900063020008630200086302000863020008AC
:1000A000630200086302000863020008630200089C
:1000B000630200086302000863020008630200088C
:1000C000630200086302000863020008630200087C
:1000D000630200084D200008630200086302000864
:1000E0006913000863020008630200086302000845
:1000F000630200086302000863020008630200084C
:10010000630200086302000863020008630200083B
:10011000630200086302000863020008630200082B
:10012000630200086302000863020008630200081B
:1001300063020008000000000000000063020008E5
:1001400063020008630200086302000863020008FB
:1001500063020008630200086302000863020008EB
:1001600063020008630200086302000863020008DB
:1001700063020008630200080000000000000000A5
:10018000630200086302000800F002F800F04DF876
:100190000AA090E8000C82448344AAF10107DA45E2
:1001A00001D100F042F8AFF2090EBAE80F0013F0E7
:1001B000010F18BFFB1A43F00103184798330000E2
:1001C000B8330000103A24BF78C878C1FAD8520773
:1001D00024BF30C830C144BF04680C6070470000C1
:1001E0000023002400250026103A28BF78C1FBD840
:1001F000520728BF30C148BF0B607047662903F023
:100200003281002070471FB503F020F99DE80300FC
:1002100000F08CF900F0F0FB04000020002102F057
:10022000D3FBE0601FBD10B510BD00F003FD11460B
:10023000FFF7E9FF01F052FF00F021FD03B4FFF7E3
:10024000F2FF03BC00F052FD09488047094800470F
:10025000FEE7FEE7FEE7FEE7FEE7FEE7FEE7FEE776
:10026000FEE7FEE704480549054A064B70470000D3
:10027000751F000889010008600100206007002048
:10028000600300206003002070B5064600F032F9DC
:10029000056806F10B0020F00704B4429CBF002063
:1002A00070BD2B466A68BAB11068A04210D304F141
:1002B000080188423CBF5068586007D35168101944
:1002C00041601168091B016058601460101D70BD09
:1002D00013465268002AE7D12146284600F012F959
:1002E0000028DED170BD70B50446051F00F002F98C
:1002F0000068002C14BF446870BD002C18BFAC42CD
:100300003CBF20466468F8D301680A18AA4218BFA7
:10031000456003D12A6805461144016028684119E7
:10032000A1421CBF6C6070BD6168696021680844AF
:10033000286070BD0FB41CB5074B06AA7B44694604
:100340000090059800F03BFB0020694600F04AFB56
:100350001CBC5DF814FB0000A50600002DE9F04769
:100360004FF0000A89460446C0F820A02046E16804
:100370008847002876D0252806D0D4E90121904767
:10038000206A401C2062F1E7E1682046002588478A
:10039000C4F81CA006460027C4F818A02A2E09D0CD
:1003A000304602F00AFB38B304EB8708303EC8F849
:1003B000186019E059F8041B204604EB870291618C
:1003C000E1688847012F064618D1E069002820DA45
:1003D00025F020051DE0D8F8180000EB800006EBA2
:1003E00040003038C8F818002046E16888470646C3
:1003F00002F0E3FA0028EED1012F0AD02E2E08D108
:100400002046E16888477F1C0646022F45F02005FC
:10041000C4DBA069002803DA404245F00105A06171
:10042000E80701D025F01005B6B1A6F14100192862
:1004300002D8203645F400654A46314620462560FC
:100440004D46FFF7DBFE58B1012806D0ED1D25F023
:10045000070000F1080989E704E005F1040985E7D0
:1004600030468AE7206ABDE8F087000000000000FF
:1004700030B44FF0013C50F8042B51F8043BCCFA57
:1004800052F4D51A20D1FCB950F8042B51F8043B92
:10049000CCFA52F4D51A17D1B4B950F8042B51F84C
:1004A000043BCCFA52F4D51A0ED16CB950F8042B97
:1004B00051F8043BCCFA52F4D51A05D1002CDAD00D
:1004C00030BC4FF00000704729BAB1FA81F111F049
:1004D0001801D1F120008440F2D1CA40CB4012F083
:1004E000FF0213F0FF0330BCD01A7047704770470B
:1004F00070470000004870471000002070477047A8
:100500007047704738B504460A4600206946AFF385
:100510000080002808BF38BD02460099204600F040
:100520006FFA012038BD012000F07CBBF8B5AFF3B5
:100530000080054600200C46102000BF0646A81982
:10054000A0420DD9324669460020AFF30080070073
:1005500008BF00F067FB0098A04218BF0546C41909
:10056000FFF7C8FF05600746F01D20F00700461999
:10057000284600F00AF8B44208BFF8BDA21B314675
:100580003868BDE8F84000F03BBA00210160C0E9DE
:1005900001107047102070472DE9FF4F0C461E4692
:1005A0004FF0FF378BB0D2E90001DDF860800A9090
:1005B0008A46C1F30A5505B93D46002108464FF069
:1005C0000000BAF1000F00F4400005DA00EB8000F3
:1005D0004FF4400101EA50004FEA9059B9F1010F80
:1005E00000DDB9460A9850EA4A000ED044F6105091
:1005F000A5F2FF3545432F14B8F1000F1ED0754208
:10060000291E1EDDC9F100021CE0B8F1010F4FF0F8
:10061000000001D0302103E0F24305E02154401CEA
:10062000B042FBDB30460022002121540B99C1F877
:100630000880C1E900200FB0BDE8F08FBD1B6D1C24
:10064000DEE74A4600DA694206A800F079FA06AB0E
:1006500093E8070003AB83E8070050460A9901F0CE
:10066000CCFD8DE80700A0F500501F3800900398DE
:10067000002D0ADD42F21F014A460844002303A967
:100680000390684602F035F809E0A0F500504A46AC
:100690001F38002303A90390684602F03FF88DE855
:1006A00007000004000C03D04FF0FF30410800E0C9
:1006B0001046B8F1000F03D00022009215461EE04C
:1006C000751E05D400F0B6F9303262556D1EF9D5AD
:1006D000B3460122084302D000227F1C04E02078A8
:1006E000302801D100227F1E002A099784D01DE006
:1006F000112D07DA00F09EF9303262556D1C50EA78
:100700000102F5D1084302D00098C8B10EE00021E3
:10071000681E05E0235C625C63542254401E491C41
:100720008142F7DBAB46A81B401E0990002004F86D
:100730000B000B98099AC0F80880C0E9002B7AE7F3
:1007400011264FF0000857E72DE9F04F8846044680
:10075000D21D22F0070191B0D1E90001CDE90A01D3
:1007600002F013F902460B98C00F01D02D2007E0CC
:100770002068810701D52B2002E0202101EAC0007A
:10078000032A099001D0072A05DB0346414620468B
:1007900000F096F90BE12078800601D5E06900E0D1
:1007A0000620B8F1650F814606D0B8F1660F18D063
:1007B000B8F1670F70D131E00020B9F1110F00904E
:1007C00001DB112301E009F101030AAA01A90CA828
:1007D000FFF7E2FEDDE90C70002609F10105834612
:1007E00047E001204B4600904FF000470AAA01A9BC
:1007F0000CA8FFF7D1FEDDE90DB00C995D4600268F
:1008000010B909F101000D18B9EB050003D4C0F1CE
:10081000FF3609F10105A5EB09002BE0B9F1010F45
:1008200001DA4FF001090020B9F1110F009048469C
:1008300001DD112300E003460AAA01A90CA8FFF775
:10084000ABFEDDE90C704D4600268346207800079C
:100850000AD4AB4500DA5D4601A8012D04DD41193B
:1008600011F8011C302907D04F4502DA17F1040FA7
:1008700004DA012082460FE06D1EEEE7002F02DC55
:10088000ED1B3E4403E0781CA84200DD7D1CB81B34
:1008900000F1010A4FF000472078000703D4AA4571
:1008A00001DB4FF0FF3A0021B7F1004F0DF1430893
:1008B0008DF8431024D002202B23002F01DA7F4231
:1008C0002D230A21021EA0F1010000DC5FB197FB7D
:1008D000F1FC97FBF1F201FB1C7C17460CF1300C8C
:1008E00008F801CDEEE7A8F10100037021880905A1
:1008F00001D5452100E06521A0F1010800F8011CA7
:1009000009980FA9A1EB0807FF1D00B101204119AB
:1009100001EBEA70A1693844081A401EA0612078F2
:10092000C00602D42046AFF30080099828B1D4E96C
:1009300001219047206A401C20622078C00622D501
:100940002046AFF300801EE0002E04DBB34502DD3D
:1009500001A8805D00E03020D4E901219047206AA1
:10096000401C2062761CAAF101005FEA000A0AD14D
:1009700000F042F8C0680168405CD4E9012190476A
:10098000206A401C2062281EA5F10105DCDC07E07E
:10099000D4E9012118F8010B9047206A401C20621D
:1009A000381EA7F10107F3DC2046AFF300800320D7
:1009B00011B041E601694A1C02610878704700B530
:1009C0008FB0CDE901310021059105497944CDE988
:1009D000031011466846FFF7C1FC0FB000BD0000D0
:1009E000E5FFFFFF0A6802F8010B0A60704700008C
:1009F0000048704708000020004870472800002089
:100A0000034640688C46002818BF88423CBF034616
:100A10004068F8D318681844884207D00CF10300E6
:100A200020F00700001D411A521A0146081D0A60F5
:100A3000FFF759BC30B5B0F10A0271F100034FEA7B
:100A4000900E4EEA817EB0EB0E0061EB91014FEA11
:100A5000101E4EEA017E10EB0E0041EB11114FEA21
:100A6000102E4EEA016E10EB0E0041EB11214FEA01
:100A7000104E4EEA014E10EB0E0041EB11414018B2
:100A800041F100014FEAD00040EA41704FEAD10144
:100A90004FEA810444EA907410EB800544EB0104B2
:100AA0006D1944EB0404521BA3414FF0000348BFEF
:100AB0000A3200D530BD401C41F1000130BD0000BC
:100AC0002DE9F0411F46044603260168072A01F478
:100AD000006004DB08B116A505E016A503E008B127
:100AE00015A500E015A521F010002060A069C01E2A
:100AF000A0610FB1401EA0612046AFF300804FB14E
:100B0000D4E9012138469047206A401C2062C01C6D
:100B1000206206E0206AFAE7D4E9012115F8010B0A
:100B20009047761EF8D22046AFF30080BDE8F081F2
:100B30004E414E006E616E00494E4600696E660081
:100B40002DE9F047814616468AB0354878440DC8ED
:100B50008DE80D0032487844801C03AC0DC884E851
:100B60000D0041F69B300844372190FBF1F290FBD9
:100B7000F1F5A5F1800501FB12041B3C02D564428E
:100B8000012000E00020DFF898A080460027FA440A
:100B9000AAF1BE0A0EE0E0070AD03246684607EB2B
:100BA000470101230AEB810101F0B8FD8DE8070040
:100BB00064107F1C002CEED1194F7F44AE3F19E02A
:100BC000E80715D007EB04100DF1180A90E80E00A5
:100BD0008AE80E00C068F04201D1981908903246A8
:100BE000012306A903A801F099FD03AB83E80700E0
:100BF0006D10641C002DE3D14FF0010332466946AD
:100C0000B8F1000F03A802D001F073FD01E001F07C
:100C100085FDC9E90001C9F808200AB0BDE8F087E0
:100C20009829000010B500F039F8BDE8104000F038
:100C30002FB870477546FFF7DBFEAE4605006946E4
:100C4000534620F00700854618B020B5FFF70AFB91
:100C5000BDE820404FF000064FF000074FF00008BD
:100C60004FF0000BAC46ACE8C009ACE8C009ACE8FA
:100C7000C009ACE8C00921F007018D46704710B5E6
:100C80000446AFF300802046BDE81040FFF7D6BA17
:100C9000002801D000F02AB87047000010B50128E4
:100CA00005D0002103A000F027F8012010BD09A104
:100CB000F8E7000053494752544D454D3A204F75CF
:100CC00074206F662068656170206D656D6F727944
:100CD000000000003A2048656170206D656D6F72FC
:100CE0007920636F72727570746564000149182011
:100CF000ABBEFEE72600020070B505460C460A2092
:100D000000E06D1C00F011F835B128780028F8D10A
:100D100002E0641C00F009F814B120780028F8D132
:100D2000BDE870400A20AFF3008008B569468DF831
:100D300000000320ABBE08BD10B543F63000C4F27E
:100D40000200016842F2040441F0010101604169BE
:100D5000C4F2010441F480714161016841F48001F1
:100D600001600020C4F20200016841F0300101601E
:100D7000D4F8000340F2033140F40000C4F800034B
:100D8000606808436060206840F2422140F490703F
:100D900020602068C0F280010843206040F26C703F
:100DA00020624FF4B9606062A06A44F2026140F4CC
:100DB0000010A062206B08432063E06840F4E070FC
:100DC000E060A06840F47C00A060606840F0804073
:100DD000606001F061F901F06FF946F2704104F1D1
:100DE0004800C4F20201886040F26800C2F20000CC
:100DF000C86003204860086842F60152104308604A
:100E000010BD00000000000080B540F26800C2F292
:100E10000000008802F07CF89FED070B53EC102BCC
:100E200002F002F99FED060B53EC102B02F0FCF8D8
:100E300041EC100B80BD00BF6666666666664A3F81
:100E4000D6048BA28B2E164080B540F26800C2F209
:100E50000000408802F05CF89FED0D0B53EC102B66
:100E600002F0E2F89FED0C0B53EC102B01F0C2FDE9
:100E70009FED0B0B53EC102B01F070FE9FED0A0B56
:100E800053EC102B01F0B6FD41EC100B80BD00BF00
:100E90006666666666664A3F52B81E85EB51E8BFD5
:100EA0007B14AE47E17A643F000000000000394047
:100EB00080B540F26800C2F20000808802F028F895
:100EC0009FED050B53EC102B02F0AEF841EC100B2C
:100ED00080BD00BF00BF00BF6666666666664A3FAB
:100EE00042F20000C4F201000168C90708BF704760
:100EF000016821F00101016040F25810C2F20000C7
:100F00000F210170017001707047000000000000A7
:100F100080B5FFF779FF40F26E0053EC102BC2F260
:100F2000000031A1FFF706FA80200521322232238A
:100F300000F0D0F840F21440C4F20200016821F041
:100F400080010160016821F040010160016821F029
:100F500020010160016821F01001016040F234407D
:100F6000C4F201000021016041600020002100F076
:100F7000A5FA0120002100F0A1FA0220002100F0D2
:100F80009DFA0320002100F099FA002000F0F8F803
:100F9000FFF73AFF9FED101B51EC100B53EC112B98
:100FA00002F046FAA0B9FFF72FFF9FED0D1B51ECA1
:100FB000100B53EC112B02F034FA002818BF80BD3F
:100FC00040F25810C2F2000003210170017001705C
:100FD00080BD00BF00BF00BF844390FFFF721A4076
:100FE0000447B8FF3FFA20400D0A23232320424143
:100FF0005454455259205741544348444F472023A5
:1010000023230D0A4261747465727920766F6C74C3
:10101000616765203D20252E32660D0A0000000024
:1010200080B543F63000C4F20200016841F00201CD
:101030000160416941F480414161016941F0100161
:10104000016140F20040C4F20200016821F4401145
:10105000016043F61001C4F201010A6842F4807293
:101060000A60D1F8F02342F48062C1F8F023D1F88D
:10107000FC2342F48062C1F8FC23D1F8F82342F447
:101080008062C1F8F823026822F440020260086816
:1010900040F480500860D1F8F00340F40060C1F8DB
:1010A000F003D1F8FC0340F40060C1F8FC03D1F870
:1010B000F80340F40060C1F8F80300F0E5FF41F2E6
:1010C0000000C4F200004FF6FF718162C16201218D
:1010D000016080BD2DE9F041002908BFBDE8F08125
:1010E000984615460E460746002400BF384600F0D5
:1010F00047F8284600F0E8FF002000F041F840469D
:1011000000F0E2FF0134B442F0D3BDE8F08100000A
:1011100043F63000C4F20200016841F002010160B0
:10112000016941F00201016140F20040C4F2020095
:10113000016821F00C010160016841F008010160C3
:10114000C16841F00801C160016A41F020010162FB
:1011500040F20040C4F200000F218162FF21C16211
:10116000C16941F4C041C16100210164016A41F4D7
:1011700080510162016841F0010101607047000087
:1011800040F240414008C4F200010860704700008E
:1011900080B500F0D7FE80BD10B520A10446FFF752
:1011A00067F930B31FA12046FFF762F918B320A1F9
:1011B0002046FFF75DF900B31FA12046FFF758F95D
:1011C000E8B120A12046FFF753F9D0B11FA1204676
:1011D000FFF74EF9B8B120A12046FFF749F9B8B1A1
:1011E0001FA12046FFF744F9002818BF10BD0320B7
:1011F0000AE000200DE0002006E0012009E00120C7
:1012000002E0022005E00220002100F057F910BDA5
:101210000320012100F052F910BD00BF4C454431BC
:101220004F4E23004C4544314F46462300000000FA
:101230004C4544324F4E23004C4544324F464623E2
:10124000000000004C4544334F4E23004C454433CE
:101250004F464623000000004C4544344F4E2300C7
:101260004C4544344F4646230000000043F630000E
:10127000C4F2020001684FF0010C41F0010101606D
:1012800001684FF0FF3241F002010160016941F055
:1012900008010161016941F0010101610020C4F20E
:1012A0000200016821F003010160016841F00201C0
:1012B0000160016821F00C010160016841F0080142
:1012C0000160016A41F022010162016821F04041A0
:1012D0000160016841F000410160D0F8001421F084
:1012E000C001C0F80014D0F8001441F08001C0F82B
:1012F0000014416A41F080514162D0F8201441F459
:101300008051C0F8201440F60040C4F20000C0F83C
:1013100028C0C262836940F201110B438361036AF2
:1013200043F031030362836843F00303836003687F
:1013300043F0010303600820C4F20000C0F820C09D
:101340004262026911430161816941F011018161C9
:10135000016841F0030101604FF08040016841F0F5
:10136000010101607047000070B543F61444C4F2F7
:101370000104206841F224054005C4F2000521D58E
:1013800040F2B206C2F20006307888B1286880B216
:1013900001F0A7FD9FED200B53EC102B01F044FE54
:1013A00001F070FD7080002030700120707005E049
:1013B000002001217080317070702860206840F436
:1013C000806020602068000558BF70BD40F2AE0606
:1013D000C2F20006307888B1286880B201F081FD41
:1013E0009FED0D0B53EC102B01F01EFE01F04AFD9A
:1013F0007080002030700120707005E00020012115
:101400007080317070702860206840F40060206047
:1014100070BD00BF00BF00BF5C8FC2F5285C1040EC
:1014200043F63000C4F20200016841F0020101609D
:10143000016841F00401016040F20040C4F2020082
:10144000016821F040710160016841F08071016024
:10145000016821F003010160016841F001010160B0
:10146000D0F8001421F44071C0F80014D0F8001432
:1014700041F48071C0F80014D0F8001421F44061E8
:10148000C0F80014D0F8001441F48061C0F80014D2
:1014900040F61401C4F202010A6842F010020A6028
:1014A0000A6842F020020A60416941F0010141618D
:1014B000416941F48051416170470000042800F205
:1014C000CA80DFE800F003152737430002295ED009
:1014D000012967D0002940F0BE8040F21440C4F2D8
:1014E0000200D0F8001441F01001C0F80014704759
:1014F000022962D001296BD0002940F0AC8040F273
:101500001440C4F20200D0F8001441F02001C0F8E9
:1015100000147047022966D001296DD0002940F0DF
:101520009A8040F21440C4F20200016841F00101C7
:1015300001607047022968D001296FD0002940F06E
:101540008A8040F21440C4F202001BE002296AD0F3
:10155000012900F08180002918BF704740F2144033
:10156000C4F20200D0F8001441F01001C0F80014D9
:10157000D0F8001441F02001C0F80014016841F0D7
:1015800001010160016841F480510160704740F23F
:101590001440C4F20200D0F8001481F01001C0F829
:1015A0000014704740F21440C4F20200D0F8001456
:1015B00021F01001C0F80014704740F21440C4F24A
:1015C0000200D0F8001481F02001C0F80014704728
:1015D00040F21440C4F20200D0F8001421F02001BF
:1015E000C0F80014704740F21440C4F202000168D1
:1015F00081F001010160704740F21440C4F2020022
:10160000016821F001010160704740F21440C4F20A
:101610000200016881F480510160704740F214407B
:10162000C4F202002CE040F21440C4F20200D0F8F0
:10163000001481F01001C0F80014D0F8001481F0FB
:101640002001C0F80014016881F001010160016807
:1016500081F480510160704740F21440C4F20200EE
:10166000D0F8001421F01001C0F80014D0F80014D4
:1016700021F02001C0F80014016821F0010101608F
:10168000016821F480510160704700000F2888BF75
:101690007047B0B582B000258DF807009DF80700AF
:1016A000ECB200F001012046FFF708FF9DF80700AB
:1016B000032C4FEA500005F101058DF80700EDD32A
:1016C00002B0BDE8B040704740F21440B5EE400AA9
:1016D00040F23841C4F20200F1EE10FAC4F2010106
:1016E00012DDB0EEC01AB2EE042A21EE021ABDEEEF
:1016F000C11A11EE102A0A60026842F0200202604C
:10170000026822F010020260B5EE400AF1EE10FA13
:1017100012DAB0EEC01AB2EE042A21EE021ABDEEC1
:10172000C11A11EE102A0A60026822F0200202603B
:10173000026842F0100202609FED0C1AB4EE410AFA
:10174000F1EE10FA11DD9FED0A1AB4EE410AF1EE46
:1017500010FAA8BF704700220A60016821F020013A
:101760000160016821F0100101607047CDCCCCBD53
:10177000CDCCCC3D43F63000C4F20200016841F00C
:1017800002010160016841F004010160416941F01A
:101790000201416140F20040C4F20200016821F4FC
:1017A00040410160016841F480410160016821F419
:1017B00040510160016841F480510160016821F4E9
:1017C00040610160016841F480610160016821F4B9
:1017D00040710160016841F480710160D0F800142B
:1017E00021F44041C0F80014D0F8001441F4004145
:1017F000C0F8001440F60C01C4F202010A6842F479
:1018000000420A60D0F8002422F44052C0F80024BC
:10181000D0F8002442F40052C0F80024086846F6CC
:10182000680240F400500860486940F04C5048613C
:1018300040F20040C4F201000121816240F2E73130
:10184000C162016A41F01101016281691143816144
:10185000002141638163416C41F4004141640168AE
:1018600041F001010160704740F21440B5EE400ABA
:1018700040F23441C4F20200F1EE10FAC4F2010168
:1018800012DDB0EEC01AB2EE042A21EE021ABDEE4D
:10189000C11A11EE102A0A60026842F0800202604A
:1018A000026822F040020260B5EE400AF1EE10FA42
:1018B00012DAB0EEC01AB2EE042A21EE021ABDEE20
:1018C000C11A11EE102A0A60026822F0800202603A
:1018D000026842F0400202609FED0C1AB4EE410A29
:1018E000F1EE10FA11DD9FED0A1AB4EE410AF1EEA5
:1018F00010FAA8BF704700220A60016821F0800139
:101900000160016821F0400101607047CDCCCCBD81
:10191000CDCCCC3DF0B581B02DED048B84B040F240
:101920005815C2F200052878022836D1002002217D
:10193000FFF7C4FDFA2000F0C7FB40F2AE05C2F28B
:101940000005687840F240140028C2F2000470D00C
:1019500068881A286DD36888F9286AD8FFF754FA7E
:10196000B0EE408AF0EE608AFFF7A2FAB0EE409A3D
:10197000F0EE609AFFF768FA40F2C00043F20051BF
:1019800053EC182BC2F20000C0F600018DED009B55
:101990008DED020BFEF7CEFC7FE02878032840F0A7
:1019A000B28040F21440C4F20200016821F08001CC
:1019B0000160016821F040010160016821F020010F
:1019C0000160016821F010010160016821F08001CF
:1019D0000160016821F040010160016821F02001EF
:1019E0000160016821F010010160016821F08001AF
:1019F0000160016821F040010160016821F02001CF
:101A00000160016821F01001016000200021FFF752
:101A100055FD01200021FFF751FD02200021FFF7B5
:101A20004DFD03200021FFF749FD0020FFF7A8FB33
:101A300015E2687850B36888FB2827D3688840F29D
:101A4000DB51884222D82068002603284FF000008E
:101A5000DCBF20680130206040F21440C4F2020074
:101A6000016821F080010160016821F040010160FE
:101A7000016821F020010160016821F0100101607E
:101A800001200221FFF71AFD6E7008E0687830B17E
:101A9000688840F2DD51884201D30020687040F22E
:101AA000B205C2F20005687878B16888FB280CD3CB
:101AB000688840F2DB51884207D820200321642245
:101AC000FA23FFF707FB002068702068042800F263
:101AD000C681DFE800F003393E43480040F214407D
:101AE000C4F20200016821F080010160016821F068
:101AF00040010160016821F020010160016821F0CE
:101B000010010160ABE128780F2806D1FFF700FA39
:101B100041F2883000F0D8FAA1E12878042827D1D2
:101B200000260BE0301FC0B20021FFF7C7FCFA20EF
:101B300000F0CAFA072C06F1010648D2F4B2032CD1
:101B4000F0D820460121F0E7B3EE090AFFF78CFE3A
:101B500085E1BBEE090AFFF787FE80E1B3EE090AD3
:101B6000FFF7B2FD7BE1BBEE090AFFF7ADFD76E1C1
:101B70002878052840F0738140F6C41000F0A4FADC
:101B80009FEDB90AFFF770FE9FEDB80AFFF79CFDC5
:101B900040F6B83000F098FA40F21440C4F2020067
:101BA000016821F080010160016821F040010160BD
:101BB000016821F020010160016821F0100101603D
:101BC0004FF47A7000F080FA0120287047E140F26B
:101BD00014444FF47A70C4F2020400F075FA08203D
:101BE0000121FA224FF4FA73FFF774FA2020012141
:101BF000FA224FF4FA73FFF76DFA40200121FA221E
:101C00004FF4FA73FFF766FA4FF47A7000F05CFA5B
:101C10009FED979AB0EE490AFFF726FE4FF47A70CF
:101C200000F052FA206820F080002060206820F048
:101C300040002060206820F020002060206820F014
:101C4000100020604FF4FA7000F03EFA9FED898A90
:101C5000B0EE480AFFF708FE4FF47A7000F034FA4D
:101C6000206820F080002060206820F04000206084
:101C7000206820F020002060206820F01000206004
:101C80004FF4FA7000F020FAB0EE490AFFF71CFD9D
:101C90004FF47A7000F018FA206820F0800020607D
:101CA000206820F040002060206820F020002060A4
:101CB000206820F0100020604FF4FA7000F004FA61
:101CC000B0EE480AFFF700FD4FF47A7000F0FCF91F
:101CD000206820F080002060206820F04000206014
:101CE000206820F020002060206820F01000206094
:101CF0004FF4FA7000F0E8F99FED5F9AB0EE490AF0
:101D0000FFF7B2FDB0EE490AFFF7DEFC4FF47A7040
:101D100000F0DAF9206820F080002060206820F0D0
:101D200040002060206820F020002060206820F023
:101D3000100020604FF4FA7000F0C6F9B0EE480AC7
:101D4000FFF792FDB0EE480AFFF7BEFC4FF47A7041
:101D500000F0BAF9206820F080002060206820F0B0
:101D600040002060206820F020002060206820F0E3
:101D7000100020604FF4FA7000F0A6F9206820F0FF
:101D800080002060206820F040002060206820F063
:101D900020002060206820F0100020604FF47A704E
:101DA00000F092F9002600BFF7B200EE107AB8EE0C
:101DB000408AB0EE480AFFF757FDB0EE480AFFF739
:101DC00083FC322000F080F9632F06F10106EBD38B
:101DD0004FF47A7000F078F9206820F080002060DD
:101DE000206820F040002060206820F02000206063
:101DF000206820F0100020604FF47A7000F064F941
:101E0000002600BF00EE106AB8EEC08AB0EE480AA5
:101E1000FFF72AFDB0EE480AFFF756FC322000F02B
:101E200053F9013E16F16400ECD14FF47A7000F0E2
:101E30004BF9206820F080002060206820F04000EE
:101E40002060206820F020002060206820F0100032
:101E500020604FF47A7000F037F90120287004B048
:101E6000BDEC048B01B0F0BD0000B4420000B4C270
:101E700000004842000048C20000C8422DE9F0437B
:101E800081B040F25818C2F2000898F8000040F201
:101E90000006C2F200063070042000210025FFF782
:101EA0000DFB00BFECB220460121FFF707FB6420C9
:101EB00000F00AF9032C05F10105F3D3002500BF5A
:101EC000ECB220460021FFF7F9FA642000F0FCF89C
:101ED000032C05F10105F3D340F2AE0440F2B20742
:101EE000C2F20004C2F200074FF0000940F2DD55D3
:101EF00003E000BF3078FFF7C9FB607810B160885D
:101F0000A84212D278780028F4D078881A28F1D321
:101F10007888F928EED830780E289ABF30780130CA
:101F20000020307087F80190E4E700206070042002
:101F30000021FFF7C3FA307888F8000001B0BDE84F
:101F4000F083000010B54EF21004CEF2000443F608
:101F50007F60606000F0A8F80020A060072020608B
:101F600010BD000040F25C10C2F2000001680131B7
:101F7000016070474EF68850CEF20000016841F4CF
:101F8000700101604FF0006140F8801C7047000054
:101F9000F0B589B00069012829DB40F24414002023
:101FA000C2F200040DF12305CDE90600CDE90400DD
:101FB000CDE90200CDE900002046294600F0E0F816
:101FC0009DF823002428F7D140F2441400256E46E2
:101FD000C2F2000456FA85F12046EFB200F0D0F8C4
:101FE000F05D01352328F5D16846FFF7D5F809B033
:101FF000F0BD000080B543F63000C4F20200016875
:1020000042F22C0241F001010160416941F01001EE
:1020100041610020C4F20200016821F470110160E6
:10202000016841F420110160416A41F4EE614162AE
:1020300041F20C00C4F201008A2140F8041C01683E
:102040001143016000F018F880BD000080B582B037
:1020500041F20000C4F20100016889060AD5406817
:102060008DF807009DF8071040F24410C2F20000FE
:1020700000F0A6F802B080BD4EF20410CEF20000CF
:1020800020210160704700004EF20410CEF20000E3
:102090004FF48071016070474EF20010CEF20000E4
:1020A0004FF48021016070474EF62350CEF20000BD
:1020B000F0210170704700004EF21240CEF2000095
:1020C000002101707047000040F25C11C2F2000173
:1020D00000220A600A688242FCD370472425C4F2B9
:1020E0000005FFF755F8FFF79BF9FEF725FEFFF710
:1020F0000FF8FFF73FFBFFF7B9F8FEF791FF40F24B
:102100004418C2F200084046802100F02BF8FFF787
:1021100071FFFFF7B3FE40F2BC0640F2B80740F291
:10212000B204C2F20006C2F20007C2F2000440F29A
:10213000DD594FF0000A00BFD5F8000C3060286868
:102140003860FFF7E7FB4046FFF722FF6078002882
:10215000F2D060884845EFD3FFF790FE84F801A0E5
:10216000EAE70000B0B5054608460C46FEF78CF8D5
:102170000021C5E900010020A9602961EC60B0BD23
:1021800080B5D0E90132934204BF022080BDD0F86F
:1021900000C0531C1CF802C0C26881F800C0D0F80F
:1021A00000C0816893FBF2FE1CF801100EFB123296
:1021B000232902D10169013901618260002080BDBB
:1021C00010B5D0F804C0C2680CF1010393FBF2FE15
:1021D00084680EFB1232A24204BF012010BD0368C6
:1021E00003F80C10D0E90013C95C232902D101695E
:1021F000013101614260002010BD5FEA400C08BF60
:1022000091F0000F4FEA8C234FEAC12243EA51516B
:102210004FEA1C5018BF00F5F0404FEA300018BFDD
:1022200041F000415FEA6C5C00F02980BCF1FF3FA7
:1022300008BF40F080407047130C06BF12044FF0F7
:10224000100C4FF0000C130E04BF12020CF1080C1E
:10225000130F04BF12010CF1040C930F04BF920082
:102260000CF1020CD30F04BF52000CF1010C11460B
:102270004FF00002A0F11F00A0EB0C00704711F01E
:10228000004F08BF704731F000413FF4D5AF0B0C51
:1022900006BF09044FF0100C4FF0000C0B0E04BFEA
:1022A00009020CF1080C0B0F04BF09010CF1040C1E
:1022B0008B0F04BF89000CF1020CCB0F04BF490047
:1022C0000CF1010CCCF1200322FA03F341EA0301E3
:1022D00002FA0CF2A0EB0C0000F10100704723F0B1
:1022E0007F4720F07F4C80EA030000F00040ACEB19
:1022F000070303F57C5303F1FF032DE9804909B47B
:102300004FEA144324EA03484FEA154B25EA0B4EE3
:102310000FF2042606EB13273E7803FB0667C7F58A
:10232000000707FB06F64FEAD64606F102064FEA1B
:10233000543707FB066CCCF1005C4FEA1C472CEAD3
:10234000074C0CFB06F507FB06F404EB15464FEAB9
:10235000961649085FEA320234BF00204FF0004071
:102360004FEAD13706FB07FC4FEA1C4C0CFB0BF77E
:10237000D21B03FB0CF761EB07010CFB0EF7B0EB74
:10238000074072EB17420CFB08F734BFA2EB074281
:10239000B2EB074261EB17414FEA0C444FEA910759
:1023A00006FB07FC4FEA1C4C0CFB0BF7B0EBC740DD
:1023B00072EB573203FB0CF734BFA2EBC742B2EB10
:1023C000C74261EB57310CFB0EF7B0EBC70072EB65
:1023D00057720CFB08F734BFA2EBC702B2EBC7027F
:1023E00061EB57714FEA816141EA92114FEA8262D3
:1023F00042EA90124FEA806004EBCC04039F4FEA5C
:10240000D13706FB07FC4FEA1C4C0CFB0BF7D21B29
:1024100003FB0CF761EB07010CFB0EF7B0EB074079
:1024200072EB17420CFB08F734BFA2EB0742B2EB8A
:10243000074261EB17414FEA8C5504EB9C244FEAAD
:10244000910706FB07FC4FEA1C4C0CFB0BF7B0EBAB
:10245000C74072EB573203FB0CF734BFA2EBC74205
:10246000B2EBC74261EB57310CFB0EF7B0EBC70084
:1024700072EB57720CFB08F734BFA2EBC702B2EB4A
:10248000C70261EB57714FEA816141EA92114FEA4D
:10249000826242EA90124FEA806015EB4C2544F1CB
:1024A00000044FEAD13706FB07FC4FEA1C4C0CFB3B
:1024B0000BF7D21B03FB0CF761EB07010CFB0EF7CC
:1024C000B0EB074072EB17420CFB08F734BFA2EBEE
:1024D0000742B2EB074261EB17414FEA813141EA13
:1024E00092414FEA823242EA90424FEA80304FEA0C
:1024F0000C7615EB1C1544F1000448EA03434EEA40
:102500000B484FF0000EB2EB080C71EB030724BF31
:10251000624639464EEB0E0E4FF0000B001852414A
:1025200049414BEB0B0BB2EB080C71EB03077BF152
:10253000000B24BF624639464EEB0E0E4FF0000BE7
:102540000018524149414BEB0B0BB2EB080C71EBFD
:1025500003077BF1000B24BF624639464EEB0E0E9B
:1025600051EA020718BF46F0010616EB0E7655F148
:10257000000254F1000103D5BDE88901BDE80088DF
:10258000BDE88901BDE80048B619524141EB01019F
:10259000A3F10103704780807F7E7D7C7B7A797810
:1025A000777676757473727171706F6E6E6D6C6C18
:1025B0006B6A6A69686867666665646463636261BA
:1025C0006160605F5F5E5E5D5D5C5C5B5B5A5A593B
:1025D00059585857575656555555545453535252A7
:1025E0005251515050504F4F4F4E4E4D4D4D4C4CFF
:1025F0004C4B4B4B4A4A4A49494948484847474748
:102600004746464645454544444444434343434284
:102610004242424141419C46002B30D477002BD0AE
:102620004FEA37071CB503B44FF010004FF010010C
:10263000BAF1000F06D0BCF1000FDCBF40F008007B
:1026400040F008014FF000000FBCBDE810400BF156
:10265000010BBBF1010F08BF5FEA170722BF12F1A0
:10266000010211F101014FF0004143F1000300F0BC
:10267000004043EA00007047F9D35708D0E746EA24
:1026800006464FEA164613F1400F1FDD13F1200FE7
:10269000DFBF16430A46002120335B42BED0C3F1A0
:1026A000200746EA06464FEA164602FA07F746EAC8
:1026B000070622FA03F2C3F1200701FA07F742EAFC
:1026C000070221FA03F14FF00003A7E746EA0206EA
:1026D00046EA06464FEA164646EA0106BCBF46EA07
:1026E0000646360C4FF000034FF000024FF0000199
:1026F00094E72DE9804C70B49A46934691E83800EF
:1027000007C831EA400C48BF34EA430C03D5FFF751
:10271000E6FDFFF780FFF0BCBDE8008C2DE9804CA2
:1027200070B49A46934691E8380007C810F0804F7D
:1027300008BF13F0804F03D100F005F8FFF76BFFDF
:10274000F0BCBDE8008C20F07F4723F07F4C80EA8E
:10275000030000F0004007EB0C03A3F57C53A3F14A
:10276000FE0392F0000F00F0B38095F0000F00F030
:1027700077802DE901494FEA114021EA00484FEAEC
:10278000144624EA064700FB06FC08FB06F607FB96
:1027900008F818EB06484CEB164C00FB07F718EB53
:1027A00007484CEB17404FEA124B22EA0B4E4FEA18
:1027B000154625EA06470BFB06FC0EFB06F607FB53
:1027C0000EFE1EEB064E4CEB164C0BFB07F71EEBFA
:1027D000074E4CEB174B18EB0B0840F1000018EBC1
:1027E0000E0B58EB000840F100008F1A4FF000016B
:1027F0004FF000063CBFC943661B14BFB5EB040C89
:1028000000213CBFC943F61B4FEA174427EA0445A1
:102810004FEA1C472CEA074C04FB076205FB07F74D
:102820000CFB05F616EB074642EB174204FB0CFCCB
:1028300016EB0C4642EB1C421BEB060658EB020261
:1028400041414EEA8E0E46EA9E0601D5BDE8018959
:10285000B619524141EB0101A3F10103BDE8018921
:102860004FEA144524EA05464FEA114721EA074C8E
:1028700005FB07F406FB07F70CFB06F111EB07411C
:1028800044EB174405FB0CFC11EB0C4144EB1C44DE
:102890004FEA124722EA074C05FB07F206FB07F74F
:1028A0000CFB06F616EB074642EB174205FB0CFC49
:1028B00016EB0C4642EB1C456A1854F1000148BF68
:1028C0007047B619524141EB0101A3F10103704772
:1028D00095F0000F37D04FEA114221EA02464FEA45
:1028E000144724EA074C02FB07F106FB07F70CFB31
:1028F00006F414EB074441EB174102FB0CFC14EB0C
:102900000C4441EB1C414FEA154725EA074C02FBFA
:1029100007F506FB07F70CFB06F616EB074645EB3B
:10292000174502FB0CFC16EB0C4645EB1C4212193A
:1029300051F1000148BF7047B619524141EB010106
:10294000A3F1010370474FEA144524EA05464FEA14
:10295000114721EA074C05FB07F106FB07F70CFBC3
:1029600006F212EB074241EB174105FB0CFC12EBA0
:102970000C4251EB1C414FF0000648BF70479218C3
:1029800041EB0101A3F10103704703B40198410039
:10299000009850EAC12018BF04204A0D18BF40F02B
:1029A000010040F2FF72B2EB515F08BF40F002003D
:1029B000012808BF052002B0704730380A2801D22C
:1029C000012070470020704710B500290AD0087810
:1029D000002807D005487844FDF74AFD002801D0BB
:1029E000002010BD0248784410BD00009E0B00007E
:1029F000960B000010B591EA030F48BF83F0004327
:102A000000F11884841A71EB030C05D2121943EB00
:102A10000C03001B61EB0C014FEA1154A4EB135C97
:102A2000DFF81CE11EEA430F18BF9EEA445F73D033
:102A300021EA045123EA0E0343F48013DCF1200E53
:102A400032D322FA0CFE10EB0E0023FA0CFE41EBFF
:102A50000E01CCF1200E03FA0EFE10EB0E00CCF1AD
:102A6000200E51F10001B1F5801F32D201EB04516B
:102A700012FA0EF2BDE8104058BF7047401C38BF34
:102A80005FEA420218BF7047002814BF20F001001F
:102A900041F100014FEA410313F5001F38BF7047B1
:102AA000A1F1C04100F0B8BB012A43EB0302ACF135
:102AB000200CDCF11F0E32BF4FF0000E23FA0CF396
:102AC00010EB030041EB0451B4EB115FD0D0A1EB4C
:102AD000045101F58011490801EB04515FEA30000F
:102AE0000ED350F1000038BF12FA0EFE08D1BDE837
:102AF0001040C9E7401C38BF5FEA4202CAD1C3E7B1
:102B0000BDE810404FEA410313F5001F38BF70477E
:102B1000A1F1C04100F080BB9EEA445F08D011EAF9
:102B20005E0FBDE8104004BF01F000410020704777
:102B3000BDE8104070B500F021FB00BF64FBBE3E55
:102B40000000E0FF491058BFC1F140415B1058BF81
:102B5000C3F140438B42EFF3008070472DE9C04141
:102B600030B4DFF8A0C23CEA111418BF3CEA1314D9
:102B700000F0EC801CEA111481EA030544EAD574E4
:102B800018BF1CEA131500F0C780A4EB050404F17C
:102B90007F7404F500344FF0004545EAC12145EA51
:102BA000C32341EA505143EA52534FEAC0204FEA4F
:102BB000C222994208BF904200F09C804FEA136500
:102BC0000FF24016765D4FEA134506FB05F7C7F195
:102BD000807706FB07F74FEAD737A7FB03687642F3
:102BE000A7FB06CEC8F5803838BFA8F1010807FB5F
:102BF00008E6A6FB028C4FF0000EE6FB03CEDCF1EC
:102C0000000CCEF1004E38BFAEF1010EA6FB0C5801
:102C10004FF00007E6FB0E87A1FB08C6A0FB07CE1E
:102C200016EB0E064FF0000545F10005E1FB0765C8
:102C300015F1E04E7EBFA4F580345FEA46066D4193
:102C400016F1800745F100054FEA172747EA0567A7
:102C50004FEA15254FEA0666A6F1DE46B6F1805F1B
:102C60001FD9384605EBC47124F0010C01EB0C119F
:102C7000BCF1FE6F02D8F0BCBDE8008124425CBF0D
:102C800001F5801E9EEAC47F02D4F0BCBDE800813D
:102C9000244238D4A1F1C041F0BCBDE8004100F0AD
:102CA000BBBA4FEAD02040EA41504FEAD1214FEA67
:102CB000D22242EA43524FEAD323A7FB028607FB04
:102CC000036605FB02661EEA0E0F58BFA6EB005610
:102CD000B6EB00564FEA520E4EEAC37E18EB0E0ECC
:102CE00056EB530EBDD518EB02085E417F1C55F123
:102CF0000005B6E74FF480154FF000074FF00006CF
:102D00004FF00008ADE701F1C04101F000414FF084
:102D10000000F0BCBDE800810CEA131511EA0C1F9D
:102D200000D00CE013EA0C1F00F025804FF00000EB
:102D300081EA030101F00041F0BCBDE80081F0BC74
:102D4000BDE8004181EA030100F066BAF0BCBDE8CD
:102D5000004170B500F012FA097EFC3E00F007B8A1
:102D60004FF0000081EA030101F00041704781EA61
:102D7000030100F051BAF0BCBDE8004122494FF018
:102D800000007047FFFDFBF9F7F5F4F2F0EEEDEB14
:102D9000E9E8E6E4E3E1E0DEDDDBDAD8D7D5D4D359
:102DA000D1D0CFCDCCCBCAC8C7C6C5C4C2C1C0BFA5
:102DB000BEBDBCBBBAB9B8B7B6B5B4B3B2B1B0AFAB
:102DC000AEADACABAAA9A8A8A7A6A5A4A3A3A2A18F
:102DD000A09F9F9E9D9C9C9B9A999998979796954A
:102DE00095949393929191908F8F8E8E8D8C8C8BE6
:102DF0008B8A89898888878786858584848383826E
:102E0000828181800000FF070000F87F51EA030CF7
:102E100017D41CF5801F58BFBCF5801F00F1068039
:102E2000994218BF704708BF9042704707D711F505
:102E3000801F58BF13F5801F19D4994270478942EB
:102E400070471CF5801F08D5BCF5801FF7D58B4255
:102E500018BF704708BF824270474FF4001C1CEB3C
:102E6000410F38BF1CEB430F01D28B42704770B546
:102E700000F084F9922449004FF000514FF0805344
:102E8000FFF760BE4FEA41034FEA5353A3F5806357
:102E9000D3F11E03C8BFD3F1210C0CDD4FF000426B
:102EA00042EAC12242EA505232FA03FC8CEAE17C47
:102EB000ACEBE1707047102BC4BF0020704703F5E6
:102EC000787CBCF1FF3F04D06FF0004282EA210021
:102ED000704770B500F052F9499224800020704785
:102EE000F2E710F0004248BF4042B0FA80F310FA17
:102EF00003F10AD0C3F11D0303F5806302EB035213
:102F00004FEA415002EBD12170474FF0000070476B
:102F1000B0FA80F310FA03F10AD0C3F11D0303F5F0
:102F200080634FEA03524FEA415002EBD1217047D0
:102F30004FF000007047000051EA030C17D41CF555
:102F4000801F58BFBCF5801F00F10680994218BF52
:102F5000704708BF9042704707D711F5801F58BFD0
:102F600013F5801F19D499427047894270471CF5A8
:102F7000801F08D5BCF5801FF7D58B4218BF70475E
:102F800008BF824270474FF4001C1CEB410F38BF52
:102F90001CEB430F01D28B42704770B500F0EEF886
:102FA000922449004FF080514FF00053FFF7CABD03
:102FB00051EA030C17D41CF5801F58BFBCF5801FC5
:102FC00000F10680994218BF704708BF90427047D1
:102FD00007D711F5801F58BF13F5801F19D49942E8
:102FE0007047894270471CF5801F08D5BCF5801FCB
:102FF000F7D58B4218BF704708BF824270474FF425
:10300000001C1CEB410F38BF1CEB430F01D28B425D
:10301000704770B500F0B2F8922449004FF00051AB
:103020004FF08053FFF78EBD70B5DFF848C11CEA42
:10303000111E1EBF1CEA13159EEA0C0F95EA0C0F19
:1030400000F06F8081EA03044EEAD47EAE4421EAA8
:103050004C1123EA4C1341F4801143F48013AEF178
:103060007F7EA1FB024CA0FB0365361955EB0C05D6
:10307000A1FB034C4CF10003A0FB021C16EB0C0659
:10308000654153F10003094218BF46F0010613F4ED
:10309000007F0BD14FEA03314FEA053041EA155169
:1030A00040EA165034036FF003020AE04FEAC321EE
:1030B0004FEAC52041EA555140EA5650F4026FF0FC
:1030C000020202EB2E4201EB025585EACE710AD0D4
:1030D0005FEA440C18BF24F0004450F1000041F1B5
:1030E000000120EAD47040F2FE7C624500D270BD3F
:1030F000A84214BF4FF080444FF04044002E08BF58
:103100000024BEF1806FA8BFA1F1C041BDE87040AE
:1031100080F2828001F1C04101F000414FF00000D7
:1031200070470CEA13159EEA0C0F18BF95EA0C0FB6
:1031300006D081EA030E4FF000000EF0004170BD92
:1031400000F01CF88900013E00F007B800F009B853
:103150004FEA430C5FEA5C5C08D081EA030100F0AF
:103160005BB84FEA410C5FEA5C5CF6D102494FF074
:10317000000070470000FF070000F87F0EF1020E0C
:103180002EF0030E5EF8046B364205D4012A43EBA1
:10319000030515F5001F12D8012841EB010C1CF5A1
:1031A000001F0CD80ED14FEAD17C0CEB4C0C0CF16B
:1031B000020C15F5001F08BF4CEBD37C04E04FF068
:1031C000080C01E04FEAD37C0CEB4C0526FA05F61F
:1031D00006F00706B6F1040C06D20EEB860CBDE82D
:1031E00070404CF0010C6047DFE80CF0090B020264
:1031F0004FF00041A1F500214FF0000070BD1946CD
:103200001046012851EB010418BFD4F5001484BF07
:10321000002001F0004170BD0808A0F500114FEA40
:103220003101704710B591EA030F48BF83F00043A6
:103230003FF5E8AB841A71EB030C07D28CF0004C1D
:10324000121943EB0C03001B61EB0C014FEA115404
:10325000A4EB135CDFF89CE11EEA430F18BF9EEA63
:10326000445F00F0B08021EA045123EA6E03524229
:10327000C3EB6E0338BF5B1EDCF1200E25D322FAB0
:103280000CFE10EB0E0043FA0CFE41EB0E01CCF1EC
:10329000200E03FA0EFE10EB0E00CCF1200E51F1C1
:1032A000000129D401EB045112FA0EF2BDE81040DE
:1032B00058BF7047401C1CBFB2F1004F7047002838
:1032C0000CBF491C20F00100704712EB020E43EBCB
:1032D000030218BF4FF0010E4EEA4202ACF1200C7F
:1032E000DCF11E0E54D943FA0CFE10EB0E00CCF1AB
:1032F0001E0E51F1FF31D5D50EF1010E12FA0EFE60
:10330000404141EB010101EB445C5FEA5C5C10D998
:1033100001EB045110EBDE7038BFBEF1004FBDE889
:10332000104018BF704700280CBF491C20F0010056
:10333000704730D24FEAD42C24F4006411F5001108
:103340001BD0B1FA81F20B3AA41AA41ED2F12003C9
:10335000914030FA03F31943904001EBCC7101EB3B
:103360000451002CBDE81040A8BF704701F1C041D6
:1033700001F000414FF000007047B0FA80F310FAFE
:1033800003F100D110BDE41A173C4805C90AE4E76F
:1033900001EB045110BD49104FEA300001EB04511C
:1033A000BDE8104002E04FF0000170474A0008BF3E
:1033B0000042F8D0B2F5001F28BF704701F000416D
:1033C0004FF0000070479EEA445F07D011EA5E0F9D
:1033D000BDE8104004BF002100207047BDE8104048
:1033E00070B5FFF7CBFE00BF40DFF63E104683F01E
:1033F000004170470000E0FF10B5FFF707FD0CBF6C
:103400000120002010BD10B5FFF700FD14BF012002
:10341000002010BD10B5FFF78FFD8CBF01200020EC
:1034200010BD10B5FFF788FD2CBF0120002010BD96
:1034300010B5FFF7BDFD94BF0120002010BD10B5F1
:10344000FFF7B6FD34BF0120002010BDF1EE100AD9
:103450004FF6FF71C0F2C03120EA010040F0407029
:10346000E1EE100A7047FDF76FB90000024000005E
:10347000000000A00000000005400000000000C89F
:10348000000000000C4000000000409C0000000014
:10349000194000000020BCBE0000000034400000C5
:1034A000BFC91B8E00000004B5400000504BCFD0B8
:1034B0006607E2CF010000006C4100003E8251AA85
:1034C000DFEEA73401000000D9420000DCB5A0E225
:1034D0003A301F97FFFFFFFFB4450000FD25A0C84D
:1034E000E9A3C14FFFFFFFFFFF3F00000000008086
:1034F00000000000FF3F000000000080000000000E
:103500000D0A4261747465727920766F6C7461671C
:1035100065203D20252E3266560D0A5652454649F5
:103520004E5420766F6C74616765203D20252E32E5
:1035300066560D0A50726F636573736F72207465FF
:103540006D7065726174757265203D20252E31663F
:10355000430D0A0090350008000000200400000020
:10356000C401000894350008080000205807000036
:10357000E00100081C00000043000000F8FFFFFF0E
:103580000C0000000E0000000F0000002E000000E4
:043590000100000036
:0400000508000249A4
:00000001FF
